:03000000020026D5
:0C002600787FE4F6D8FD75811202006DB1
:1002850068656C6C6F776F726C643D007A68656E3B
:07029500677A656B616900E7
:04032400020F0000C4
:1002C70075CAD975CBFF75C834759850D29CD2AF13
:0302D700D2AC2284
:10020C007D887C13D3EF9400EE648094804019D3E6
:10021C00ED9400EC648094804007ED1D70F11C801F
:08022C00EEEF1F70DF1E80DC05
:0102340022A7
:08031C008F993099FDC299226E
:1002DA001200B2FF600C12031C740129F9E43AFA05
:0302EA0080EE2281
:100120001202C7120189E4F512F511F50FF5107AE4
:10013000027B85FDFF1201D3AE0FAF107C007D6402
:100140001200CB7E007F0ACFCDCFCECCCE1200CB1B
:10015000EF2430FBE4FD7F0B120235AE0FAF107CB5
:10016000007D0A1200CBED2430FBE4FD7F0C12026F
:1001700035E511B40103E4F5117FF47E0112020CA0
:090180007FF47E0112020C80AF35
:03002300020003D5
:10000300C0D075D000C007C298AF99750F008F108C
:100013008510993099FDC299751101D007D0D0325E
:10029C003136303241007A68656E677A656B616918
:0602AC005F74657374002D
:1002ED008F0E1202B2850EA0D2B6C2B5C2B4C2B480
:0302FD00D2B42256
:040251007D017C00AF
:100255008F0EED4C60031202B2850EA0C2B6C2B578
:07026500C2B4C2B4D2B422FE
:0D030F00D2B6D2B5C2B4C2B4D2B4AFA022EF
:1002B20075A0FFC2B6D2B5C2B4C2B4D2B4E5A02012
:0502C200E7FBAFA022E4
:10018900C2B7E4F5A0FDFC7F38120255120300E462
:10019900FDFC7F38120255120300E4FDFC7F381282
:1001A90002551203007F381202517F081202517D55
:1001B900017C007F011202557D017C007F0612023D
:0A01C900557D017C007F0C020255F9
:100235008B0D53050153070FED600343074043073B
:0C02450080E4FDFC120255AF0D0202ED3A
:0801D3008F088D098A0A8B0BCD
:1001DB00E4F50C53090153080FE50B250CF582E4EC
:1001EB00350AF583E493FBD394204014E508D394AC
:1001FB000F50E6AD09AF08120235050C050880D982
:01020B0022D0
:0E0300007FB07E15EF1FAC0670011E4C70F62C
:01030E0022CC
:10026C007D05AC051DEC60107E1C7F65EF1FAA069A
:08027C0070011E4A60EC80F4E1
:010284002257
:10003200020120E493A3F8E493A34003F68001F2C3
:1000420008DFF48029E493A3F85407240CC8C333CF
:10005200C4540F4420C8834004F456800146F6DF9E
:10006200E4800B0102040810204080900324E47E07
:10007200019360BCA3FF543F30E509541FFEE49393
:10008200A360010ECF54C025E060A840B8E493A35A
:10009200FAE493A3F8E493A3C8C582C8CAC583CA85
:1000A200F0A3C8C582C8CAC583CADFE9DEE780BE3D
:0103280000D4
:1000B200BB010689828A83E0225002E722BBFE024C
:0900C200E32289828A83E493227F
:1000CB00BC000BBE0029EF8DF084FFADF022E4CC19
:1000DB00F875F008EF2FFFEE33FEEC33FCEE9DECE2
:1000EB00984005FCEE9DFE0FD5F0E9E4CEFD22ED28
:1000FB00F8F5F0EE8420D21CFEADF075F008EF2F72
:10010B00FFED33FD4007985006D5F0F222C398FD62
:05011B000FD5F0EA22FF
:00000001FF
