:03000000020218E1
:0C021800787FE4F6D8FD75811102000328
:10010F0068656C6C6F776F726C643D007A68656EB2
:10011F00677A6B09007A68656E677A656B6169004B
:1001C30075CAD975CBFF75C834759850D29CD2AF18
:0301D300D2AC2289
:1000E6007D887C13D3EF9400EE648094804019D30E
:1000F600ED9400EC648094804007ED1D70F11C8047
:08010600EEEF1F70DF1E80DC2C
:01010E0022CE
:080224008F993099FDC2992267
:1001D60012017FFF600C120224740129F9E43AFA35
:0301E60080EE2286
:100003001201C3120063758001E4F5107A017B0FBE
:10001300FDFF1200ADE51075F06484E5F075F00A9C
:10002300842430FBE4FD7F0B12012FE51075F00AE9
:1000330084E5F02430FBE4FD7F0C12012F7BFF7A73
:1000430001791B1201D60510E510B46403E4F51021
:100053007FF47E011200E67FF47E011200E680B594
:100198003136303241007A68656E677A656B61691D
:0601A8005F746573740032
:1001E9008F0E1201AE850EA0D2B6C2B5C2B4C2B48A
:0301F900D2B4225B
:04014B007D017C00B6
:10014F008F0EED4C60031201AE850EA0C2B6C2B584
:07015F00C2B4C2B4D2B42205
:0D020B00D2B6D2B5C2B4C2B4D2B4AFA022F4
:1001AE0075A0FFC2B6D2B5C2B4C2B4D2B4E5A02017
:0501BE00E7FBAFA022E9
:10006300C2B7E4F5A0FDFC7F3812014F1201FCE496
:10007300FDFC7F3812014F1201FCE4FDFC7F3812B6
:10008300014F1201FC7F3812014B7F0812014B7D97
:10009300017C007F0112014F7D017C007F0612016C
:0A00A3004F7D017C007F0C02014F2D
:10012F008B0D53050153070FED6003430740430742
:0C013F0080E4FDFC12014FAF0D0201E94D
:0800AD008F088D098A0A8B0BF4
:1000B500E4F50C53090153080FE50B250CF582E413
:1000C500350AF583E493FBD394204014E508D394D3
:1000D5000F50E6AD09AF0812012F050C050880D9B0
:0100E50022F8
:0E01FC007FB07E15EF1FAC0670011E4C70F632
:01020A0022D1
:100166007D05AC051DEC60107E1C7F65EF1FAA06A1
:0801760070011E4A60EC80F4E8
:01017E00225E
:10017F00BB010689828A83E0225002E722BBFE027E
:09018F00E32289828A83E49322B1
:00000001FF
