:03000000020003F8
:0C000300787FE4F6D8FD75811402004AF5
:090143007A68656E677A6B0900A9
:0C0136000A0A3F065B4F666D7D07FF6FF5
:0E012800EFC3940A5007740A2FF8E6F5802200
:1001020075CAD975CBFF75C834759850D29CD2AFD9
:03011200D2AC224A
:1000C0007D887C13D3EF9400EE648094804019D334
:1000D000ED9400EC648094804007ED1D70F11C806D
:0800E000EEEF1F70DF1E80DC53
:0100E80022F5
:08014C008F993099FDC2992240
:100115001200E9FF600C12014C740129F9E43AFA66
:0301250080EE2247
:10008F00120102758001E4F5097BFF7A01794312B1
:10009F000115AF090509120128E509B40A03E4F5B2
:1000AF00097FF47E011200C07FF47E011200C08030
:0100BF00D868
:10000F0002008FE493A3F8E493A34003F68001F278
:10001F0008DFF48029E493A3F85407240CC8C333F2
:10002F00C4540F4420C8834004F456800146F6DFC1
:10003F00E4800B0102040810204080900136E47E1A
:10004F00019360BCA3FF543F30E509541FFEE493B6
:10005F00A360010ECF54C025E060A840B8E493A37D
:10006F00FAE493A3F8E493A3C8C582C8CAC583CAA8
:10007F00F0A3C8C582C8CAC583CADFE9DEE780BE60
:0101420000BC
:1000E900BB010689828A83E0225002E722BBFE0215
:0900F900E32289828A83E4932248
:00000001FF
