:03000000020003F8
:0C000300787FE4F6D8FD75810F02004AFA
:100162003136303241007A68656E677A656B616953
:060172005F746573740068
:10018D008F0D120178850DA0D2B6C2B5C2B4C2B41E
:03019D00D2B422B7
:04012E007D017C00D3
:100132008F0EED4C6003120178850EA0C2B6C2B5D7
:07014200C2B4C2B4D2B42222
:0D01AF00D2B6D2B5C2B4C2B4D2B4AFA02251
:1001780075A0FFC2B6D2B5C2B4C2B4D2B4E5A0204D
:05018800E7FBAFA0221F
:10008F00C2B7E4F5A0FDFC7F381201321201A0E4E3
:10009F00FDFC7F381201321201A0E4FDFC7F381203
:1000AF0001321201A07F3812012E7F0812012E7D1E
:1000BF00017C007F011201327D017C007F0612015D
:0A00CF00327D017C007F0C0201323B
:100112008B0F53050153070FED600343074043075D
:0C01220080E4FDFC120132AF0F02018DE1
:0800D9008F088D098A0A8B0BC8
:1000E100E4F50C53090153080FE50B250CF582E4E7
:1000F100350AF583E493FBD394204014E508D394A7
:100101000F50E6AD09AF08120112050C050880D9A0
:0101110022CB
:0E01A0007FB07E15EF1FAC0670011E4C70F68E
:0101AE00222E
:100149007D05AC051DEC60107E1C7F65EF1FAA06BE
:0801590070011E4A60EC80F405
:01016100227B
:10000F00020000E493A3F8E493A34003F68001F207
:10001F0008DFF48029E493A3F85407240CC8C333F2
:10002F00C4540F4420C8834004F456800146F6DFC1
:10003F00E4800B01020408102040809001BCE47E94
:10004F00019360BCA3FF543F30E509541FFEE493B6
:10005F00A360010ECF54C025E060A840B8E493A37D
:10006F00FAE493A3F8E493A3C8C582C8CAC583CAA8
:10007F00F0A3C8C582C8CAC583CADFE9DEE780BE60
:0101BC000042
:00000001FF
