:0300000002015F9B
:0C015F00787FE4F6D8FD75810E02008662
:100105003136303241007A68656E677A656B6169B0
:060115005F7465737400C5
:100130008F0E12011B850EA0D2B6C2B5C2B4C2B4D6
:03014000D2B42214
:0400D1007D017C0031
:1000D5008F0EED4C600312011B850EA0C2B6C2B592
:0700E500C2B4C2B4D2B42280
:0D015200D2B6D2B5C2B4C2B4D2B4AFA022AE
:10011B0075A0FFC2B6D2B5C2B4C2B4D2B4E5A020AA
:05012B00E7FBAFA0227C
:10000300C2B7E4F5A0FDFC7F381200D5120143E42A
:10001300FDFC7F381200D5120143E4FDFC7F38124A
:1000230000D51201437F381200D17F081200D17D21
:10003300017C007F011200D57D017C007F06120048
:0A004300D57D017C007F0C0200D582
:1000B5008B0D53050153070FED60034307404307BD
:0C00C50080E4FDFC1200D5AF0D020130FC
:08004D008F088D098A0A8B0B54
:10005500E4F50C53090153080FE50B250CF582E473
:10006500350AF583E493FBD394204014E508D39433
:100075000F50E6AD09AF081200B5050C050880D98B
:010085002258
:0E0143007FB07E15EF1FAC0670011E4C70F6EB
:01015100228B
:1000EC007D05AC051DEC60107E1C7F65EF1FAA061C
:0800FC0070011E4A60EC80F463
:0101040022D8
:100086001200EC1200031201437A017B0BE4FDFF20
:1000960012004D7A017B057D017F0612004D7B39EA
:0F00A6007D01E4FF1200B512015275A0FF80FE2C
:00000001FF
