:0300000002020EEB
:0C020E00787FE4F6D8FD758120020255CF
:10056F0074656D703A30300064733A00686D64746E
:04057F003A303000DE
:06000300011D00011C00BC
:10000E007514011203717FE87E0312049F12016DB5
:10001E007FB87E0B12049F1205A97A057B6FE4FD53
:10002E00FF1204037A057B77E4FD7F0A1204037A3C
:10003E00057B7B7D01E4FF120403E51CB43C08E460
:10004E00F51C051412016DE51420E04DE4F512F5D2
:10005E0013AE10AF117C007D0A12029A7C007D0A4D
:10006E0012029AED2430FBE4FD7F051204DAAE1085
:10007E00AF117C007D0A12029AED2430FBE4FD7F65
:10008E00061204DA0513E51370020512C39402E595
:10009E00126480948040BA804BE4F512F513AE0ED4
:1000AE00AF0F7C007D0A12029A7C007D0A12029A22
:1000BE00ED2430FB7D017F051204DAAE0EAF0F7C0E
:1000CE00007D0A12029AED2430FB7D017F06120498
:1000DE00DA0513E51370020512C39402E51264806B
:1000EE00948040BA1205E21205117C007D101202B6
:1000FE009A8F1DE51DC39400503AE51DF404F51DBD
:10010E007B2DE4FD7F0D1204DAE51D75F00A847572
:10011E00F00A84E5F02430FBE4FD7F0E1204DAE5EC
:10012E001D75F00A84E5F02430FBE4FD7F0F120408
:10013E00DA020048E51D75F00A8475F00A84E5F0D0
:10014E002430FBE4FD7F0D1204DAE51D75F00A8400
:0F015E00E5F02430FBE4FD7F0E1204DA020048C6
:1005A900758CB0758AB0758901D28CD2A9D2AF2267
:03000B000205EFFC
:0905EF00758CAF758AAF051C3252
:100544003136303241007A68656E677A656B61696D
:060554005F746573740082
:100583008F1B12055A851BA0D2B7C2B6C2B5C2B51E
:03059300D2B522BC
:0404F6007D017C0008
:1004FA008F1BED4C600312055A851BA0C2B7C2B60A
:07050A00C2B5C2B5D2B52253
:0D05C800D2B7D2B6C2B5C2B5D2B5AFA0222F
:10055A0075A0FFC2B7D2B6C2B5C2B5D2B5E5A02062
:05056A00E7FBAFA02239
:10037100C2B3E4F5A0FDFC7F381204FA1205B9E41A
:10038100FDFC7F381204FA1205B9E4FDFC7F381236
:1003910004FA1205B97F381204F67F081204F67DBB
:1003A100017C007F011204FA7D017C007F061204AA
:0A03B100FA7D017C007F0C0204FAC3
:1004DA008B1A53050153070FED6003430740430787
:0C04EA0080E4FDFC1204FAAF1A02058346
:080403008F158D168A178B1866
:10040B00E4F51953160153150FE5182519F582E478
:10041B003517F583E493FBD394204014E515D3945F
:10042B000F50E6AD16AF151204DA0519051580D974
:01043B00229E
:0E05B9007FB07E15EF1FAC0670011E4C70F671
:0105C7002211
:10052B007D05AC051DEC60107E1C7F65EF1FAA06D8
:08053B0070011E4A60EC80F41F
:010543002295
:10049F00D3EF9400EE940040147D7C7C00ED1D7032
:0D04AF00011CED4C70F7EF1F70E61E80E39E
:0104BC00221D
:0C05D5001515151515151515151515151E
:0105E10022F7
:10032500E4FF750D017E08EF25E0FFE4FD2093094C
:10033500AC050DECC3941440F4EDC3941440028055
:10034500231205D51205D51205D530931C0F309310
:100355000DAC050DECC394145004D29380F0EDC39D
:0B03650094144005E4F50DFF22DEBCFF
:01037000226A
:10016D00E4FBF9FAC2AFC2937F14FE12049FD2933F
:10017D001205D51205D51205D51205D5309302807D
:10018D007B209309AF020AEFC3941440F4EAC394A1
:10019D001440028016E4FAD293309309AF020AEFAD
:1001AD00C3941440F4EAC394144004D293804DE4F4
:1001BD00FB12032574082BF8A607E50D7006D293E4
:1001CD00D2AFFF22EB6404600774082BF8E629F91F
:1001DD000BBB05DDE9650C7023E5086003FF8002AC
:1001ED00AF09750E008F0FE50A6003FF8002AF0B9C
:1001FD007510008F11D293D2AF7F0122D2AF7F0045
:01020D0022CE
:070460001204807F017E0001
:10046700EF4E60147DC87C00ED1D70011CED4C70D3
:08047700F7EF1F70EB1E80E897
:01047F00225A
:10048000C2917F677E00EF1F70011EEF4E70F7D2A2
:0E049000917E007F04EF1F70011EEF4E70F78B
:01049E00223B
:10043C00C2910FBF0000D2910FBF00000FBF000090
:10044C00A29192007E007F08EF1F70011EEF4E708C
:03045C00F7A20004
:01045F00227A
:1004BD00E4FD7C0112043CE433FFC4333333548038
:0C04CD00FEEDC3134EFD0CBC09EAAF05A8
:0104D9002200
:1003BB007E01EF139200EFC313FF30001BC2910BB2
:1003CB00BB00000BBB0000D2917A007B08EB1B70CB
:1003DB00011AEB4A70F7801BC2917A007B08EB1B6A
:1003EB0070011AEB4A70F7D2910BBB00010A0BBBE1
:0703FB0000010A0EBE09BB60
:0104020022D7
:0D05E2001204607FCC1203BB7F440203BBF8
:100511001204607FCC1203BB7FBE1203BB1204BD69
:09052100AB071204BDEFFEEBFF75
:01052A0022AE
:100596001204607F331203BB1204BD8F1E1204BD0A
:0205A6008F1FA5
:0105A8002230
:10021A0002000EE493A3F8E493A34003F68001F2EC
:10022A0008DFF48029E493A3F85407240CC8C333E5
:10023A00C4540F4420C8834004F456800146F6DFB4
:10024A00E4800B0102040810204080900003E47E41
:10025A00019360BCA3FF543F30E509541FFEE493A9
:10026A00A360010ECF54C025E060A840B8E493A370
:10027A00FAE493A3F8E493A3C8C582C8CAC583CA9B
:10028A00F0A3C8C582C8CAC583CADFE9DEE780BE53
:0100090000F6
:10029A00C2D5EC30E709B2D5E4C39DFDE49CFCEE7F
:1002AA0030E715B2D5E4C39FFFE49EFE1202D0C325
:1002BA00E49DFDE49CFC80031202D030D507C3E420
:0602CA009FFFE49EFE22EE
:1002D000BC000BBE0029EF8DF084FFADF022E4CC12
:1002E000F875F008EF2FFFEE33FEEC33FCEE9DECDB
:1002F000984005FCEE9DFE0FD5F0E9E4CEFD22ED21
:10030000F8F5F0EE8420D21CFEADF075F008EF2F6A
:10031000FFED33FD4007985006D5F0F222C398FD5B
:050320000FD5F0EA22F8
:00000001FF
