:0300000002018E6C
:0C018E00787FE4F6D8FD75811C0201D5D5
:1004300074656D703A303000686D64743A30300025
:03000300011C00DD
:10000E007514017FE87E031203741200ED7FB87E33
:10001E000B1203741204201202F17A047B30E4FDF9
:10002E00FF12033B7A047B387D01E4FF12033BE5AC
:10003E001CB43C08E4F51C05141200EDE51420E098
:10004E004FE4F512F513C3E5139402E512648094A0
:10005E008050DCAE10AF117C007D0A12021A7C00BB
:10006E007D0A12021AED2430FBE4FD7F0512039285
:10007E00AE10AF117C007D0A12021AED2430FBE4A3
:10008E00FD7F061203920513E51370BA051280B6B2
:10009E00E4F512F513C3E5139402E512648094801F
:1000AE00508DAE0EAF0F7C007D0A12021A7C007DC1
:1000BE000A12021AED2430FB7D017F05120392AE67
:1000CE000EAF0F7C007D0A12021AED2430FB7D016B
:0F00DE007F061203920513E51370BA051280B660
:10042000758CB0758AB0758901D28CD2A9D2AF22F1
:03000B0002046983
:09046900758CAF758AAF051C32D9
:1003E2003136303241007A68656E677A656B6169D1
:0603F2005F7465737400E6
:10040D008F1B1203F8851BA0D2B7C2B6C2B5C2B5F9
:03041D00D2B52233
:0403AE007D017C0051
:1003B2008F1BED4C60031203F8851BA0C2B7C2B6B7
:0703C200C2B5C2B5D2B5229D
:0D044F00D2B7D2B6C2B5C2B5D2B5AFA022A9
:1003F80075A0FFC2B7D2B6C2B5C2B5D2B5E5A020C6
:05040800E7FBAFA0229C
:1002F100C2B3E4F5A0FDFC7F381203B2120440E45E
:10030100FDFC7F381203B2120440E4FDFC7F381279
:1003110003B21204407F381203AE7F081203AE7D90
:10032100017C007F011203B27D017C007F06120374
:0A033100B27D017C007F0C0203B2D4
:100392008B1A53050153070FED60034307404307D0
:0C03A20080E4FDFC1203B2AF1A02040D4F
:08033B008F158D168A178B182F
:10034300E4F51953160153150FE5182519F582E441
:100353003517F583E493FBD394204014E515D39428
:100363000F50E6AD16AF151203920519051580D986
:010373002267
:0E0440007FB07E15EF1FAC0670011E4C70F6EB
:01044E00228B
:1003C9007D05AC051DEC60107E1C7F65EF1FAA063C
:0803D90070011E4A60EC80F483
:0103E10022F9
:10037400D3EF9400EE940040147D7C7C00ED1D705E
:0D038400011CED4C70F7EF1F70E61E80E3CA
:010391002249
:0C045C0015151515151515151515151598
:010468002271
:1002A500E4FF750D017E08EF25E0FFE4FD209309CD
:1002B500AC050DECC3941440F4EDC39414400280D6
:1002C5002312045C12045C12045C30931C0F3093FF
:1002D5000DAC050DECC394145004D29380F0EDC31E
:0B02E50094144005E4F50DFF22DEBC80
:0102F00022EB
:1000ED00E4FBF9FAC2AFC2937F14FE120374D293EC
:1000FD0012045C12045C12045C12045C30930280E6
:10010D007B209309AF020AEFC3941440F4EAC39421
:10011D001440028016E4FAD293309309AF020AEF2D
:10012D00C3941440F4EAC394144004D293804DE474
:10013D00FB1202A574082BF8A607E50D7006D293E5
:10014D00D2AFFF22EB6404600774082BF8E629F99F
:10015D000BBB05DDE9650C7023E5086003FF80022C
:10016D00AF09750E008F0FE50A6003FF8002AF0B1C
:10017D007510008F11D293D2AF7F0122D2AF7F00C5
:01018D00224F
:10019A0002000EE493A3F8E493A34003F68001F26D
:1001AA0008DFF48029E493A3F85407240CC8C33366
:1001BA00C4540F4420C8834004F456800146F6DF35
:1001CA00E4800B0102040810204080900003E47EC2
:1001DA00019360BCA3FF543F30E509541FFEE4932A
:1001EA00A360010ECF54C025E060A840B8E493A3F1
:1001FA00FAE493A3F8E493A3C8C582C8CAC583CA1C
:10020A00F0A3C8C582C8CAC583CADFE9DEE780BED3
:0100060000F9
:10021A00C2D5EC30E709B2D5E4C39DFDE49CFCEEFF
:10022A0030E715B2D5E4C39FFFE49EFE120250C325
:10023A00E49DFDE49CFC800312025030D507C3E420
:06024A009FFFE49EFE226E
:10025000BC000BBE0029EF8DF084FFADF022E4CC92
:10026000F875F008EF2FFFEE33FEEC33FCEE9DEC5B
:10027000984005FCEE9DFE0FD5F0E9E4CEFD22EDA1
:10028000F8F5F0EE8420D21CFEADF075F008EF2FEB
:10029000FFED33FD4007985006D5F0F222C398FDDC
:0502A0000FD5F0EA2279
:00000001FF
